001: 439050000+000000B100020DB0SX       
002: 145762500+000000B100020DB0WF       
003: 145600000+0000004100020DB0SP 2m    
004: 145625000+000000E100020DB0SP C4FM  
005: 439425000+000000B100020DB0SP 70cm  
006: 438725000+000000B100020DB0ZOD 70cm 
007: 145662500+000000B100020DB0ZOD 2m   
008: 439125000+000000B100020DB0TA       
009: 438700000+000000E100020DB0TA xC4FM 
020: 438750000+000000B100020DB0PY       
021: 439025000+000000B120020DB0UG       
022: 439425000+000000B100020DB0KB       
023: 145762500+000000B120020DM0DOS 2m   
024: 438775000+000000B120020DM0DOS 70cm 
025: 438537500+000000E120020DM0DOS xC4FM
027: 438850000+000000B100020DB0DOS      
028: 145750000+000000B100020DM0MAX 2m   
029: 437737500+000000B100020DM0MAX 70cm 
030: 438275000+000000E100020DM0MAX xC4FM
033: 439250000+000000B100020DB0BI       
034: 145662500+000000B100020DB0TOM      
035: 145625000+000000B120020DB0SA 2m    
036: 438625000+000000B120020DB0SA 70cm  
037: 438562500+000000B100020DB0RI       
040: 439950000+0000009120000DM0DOS MM   
041: 029620000+000000B100020DM0MAX 10m  
042: 029650000+000000B120020DB0TVH      
